{
  "contractName": "StructDemo",
  "abi": [
    {
      "inputs": [
        {
          "internalType": "uint256",
          "name": "empid",
          "type": "uint256"
        },
        {
          "internalType": "string",
          "name": "name",
          "type": "string"
        },
        {
          "internalType": "string",
          "name": "designation",
          "type": "string"
        },
        {
          "internalType": "string",
          "name": "department",
          "type": "string"
        }
      ],
      "name": "addEmployee",
      "outputs": [],
      "stateMutability": "nonpayable",
      "type": "function"
    },
    {
      "inputs": [
        {
          "internalType": "uint256",
          "name": "empid",
          "type": "uint256"
        }
      ],
      "name": "getEmployee",
      "outputs": [
        {
          "components": [
            {
              "internalType": "uint256",
              "name": "empid",
              "type": "uint256"
            },
            {
              "internalType": "string",
              "name": "name",
              "type": "string"
            },
            {
              "internalType": "string",
              "name": "designation",
              "type": "string"
            },
            {
              "internalType": "string",
              "name": "department",
              "type": "string"
            }
          ],
          "internalType": "struct StructDemo.Employee",
          "name": "",
          "type": "tuple"
        }
      ],
      "stateMutability": "view",
      "type": "function"
    }
  ],
  "bytecode": "0x608060405234801561001057600080fd5b50610caf806100206000396000f3fe608060405234801561001057600080fd5b50600436106100365760003560e01c8063bca9a5c51461003b578063de9af1511461006b575b600080fd5b61005560048036038101906100509190610730565b610087565b6040516100629190610876565b60405180910390f35b610085600480360381019061008091906109cd565b6102fc565b005b61008f61061b565b60005b61009a61060f565b8110156102bb5760008082815481106100b6576100b5610a88565b5b9060005260206000209060040201604051806080016040529081600082015481526020016001820180546100e990610ae6565b80601f016020809104026020016040519081016040528092919081815260200182805461011590610ae6565b80156101625780601f1061013757610100808354040283529160200191610162565b820191906000526020600020905b81548152906001019060200180831161014557829003601f168201915b5050505050815260200160028201805461017b90610ae6565b80601f01602080910402602001604051908101604052809291908181526020018280546101a790610ae6565b80156101f45780601f106101c9576101008083540402835291602001916101f4565b820191906000526020600020905b8154815290600101906020018083116101d757829003601f168201915b5050505050815260200160038201805461020d90610ae6565b80601f016020809104026020016040519081016040528092919081815260200182805461023990610ae6565b80156102865780601f1061025b57610100808354040283529160200191610286565b820191906000526020600020905b81548152906001019060200180831161026957829003601f168201915b505050505081525050905083816000015114156102a75780925050506102f7565b5080806102b390610b47565b915050610092565b506040517f08c379a00000000000000000000000000000000000000000000000000000000081526004016102ee90610bed565b60405180910390fd5b919050565b60005b61030761060f565b81101561055957600080828154811061032357610322610a88565b5b90600052602060002090600402016040518060800160405290816000820154815260200160018201805461035690610ae6565b80601f016020809104026020016040519081016040528092919081815260200182805461038290610ae6565b80156103cf5780601f106103a4576101008083540402835291602001916103cf565b820191906000526020600020905b8154815290600101906020018083116103b257829003601f168201915b505050505081526020016002820180546103e890610ae6565b80601f016020809104026020016040519081016040528092919081815260200182805461041490610ae6565b80156104615780601f1061043657610100808354040283529160200191610461565b820191906000526020600020905b81548152906001019060200180831161044457829003601f168201915b5050505050815260200160038201805461047a90610ae6565b80601f01602080910402602001604051908101604052809291908181526020018280546104a690610ae6565b80156104f35780601f106104c8576101008083540402835291602001916104f3565b820191906000526020600020905b8154815290600101906020018083116104d657829003601f168201915b50505050508152505090508581600001511415610545576040517f08c379a000000000000000000000000000000000000000000000000000000000815260040161053c90610c59565b60405180910390fd5b50808061055190610b47565b9150506102ff565b50600060405180608001604052808681526020018581526020018481526020018381525090806001815401808255809150506001900390600052602060002090600402016000909190919091506000820151816000015560208201518160010190805190602001906105cc929190610643565b5060408201518160020190805190602001906105e9929190610643565b506060820151816003019080519060200190610606929190610643565b50505050505050565b60008080549050905090565b6040518060800160405280600081526020016060815260200160608152602001606081525090565b82805461064f90610ae6565b90600052602060002090601f01602090048101928261067157600085556106b8565b82601f1061068a57805160ff19168380011785556106b8565b828001600101855582156106b8579182015b828111156106b757825182559160200191906001019061069c565b5b5090506106c591906106c9565b5090565b5b808211156106e25760008160009055506001016106ca565b5090565b6000604051905090565b600080fd5b600080fd5b6000819050919050565b61070d816106fa565b811461071857600080fd5b50565b60008135905061072a81610704565b92915050565b600060208284031215610746576107456106f0565b5b60006107548482850161071b565b91505092915050565b610766816106fa565b82525050565b600081519050919050565b600082825260208201905092915050565b60005b838110156107a657808201518184015260208101905061078b565b838111156107b5576000848401525b50505050565b6000601f19601f8301169050919050565b60006107d78261076c565b6107e18185610777565b93506107f1818560208601610788565b6107fa816107bb565b840191505092915050565b600060808301600083015161081d600086018261075d565b506020830151848203602086015261083582826107cc565b9150506040830151848203604086015261084f82826107cc565b9150506060830151848203606086015261086982826107cc565b9150508091505092915050565b600060208201905081810360008301526108908184610805565b905092915050565b600080fd5b600080fd5b7f4e487b7100000000000000000000000000000000000000000000000000000000600052604160045260246000fd5b6108da826107bb565b810181811067ffffffffffffffff821117156108f9576108f86108a2565b5b80604052505050565b600061090c6106e6565b905061091882826108d1565b919050565b600067ffffffffffffffff821115610938576109376108a2565b5b610941826107bb565b9050602081019050919050565b82818337600083830152505050565b600061097061096b8461091d565b610902565b90508281526020810184848401111561098c5761098b61089d565b5b61099784828561094e565b509392505050565b600082601f8301126109b4576109b3610898565b5b81356109c484826020860161095d565b91505092915050565b600080600080608085870312156109e7576109e66106f0565b5b60006109f58782880161071b565b945050602085013567ffffffffffffffff811115610a1657610a156106f5565b5b610a228782880161099f565b935050604085013567ffffffffffffffff811115610a4357610a426106f5565b5b610a4f8782880161099f565b925050606085013567ffffffffffffffff811115610a7057610a6f6106f5565b5b610a7c8782880161099f565b91505092959194509250565b7f4e487b7100000000000000000000000000000000000000000000000000000000600052603260045260246000fd5b7f4e487b7100000000000000000000000000000000000000000000000000000000600052602260045260246000fd5b60006002820490506001821680610afe57607f821691505b60208210811415610b1257610b11610ab7565b5b50919050565b7f4e487b7100000000000000000000000000000000000000000000000000000000600052601160045260246000fd5b6000610b52826106fa565b91507fffffffffffffffffffffffffffffffffffffffffffffffffffffffffffffffff821415610b8557610b84610b18565b5b600182019050919050565b600082825260208201905092915050565b7f456d706c6f796565204e6f7420466f756e640000000000000000000000000000600082015250565b6000610bd7601283610b90565b9150610be282610ba1565b602082019050919050565b60006020820190508181036000830152610c0681610bca565b9050919050565b7f5573657220616c72656164792065786973747300000000000000000000000000600082015250565b6000610c43601383610b90565b9150610c4e82610c0d565b602082019050919050565b60006020820190508181036000830152610c7281610c36565b905091905056fea264697066735822122000f2390ea9c9e59c5bf83aa4480628a76fecd78469090cc0ee0accf329b6fa0864736f6c634300080a0033",
  "immutableReferences": {},
  "source": "// SPDX-License-Identifier: MIT\npragma solidity 0.8.10;\n\ncontract StructDemo {\n\n  struct Employee {\n    uint empid;\n    string name;\n    string designation;\n    string department;\n  }\n\n  Employee[] emps;\n\n  function addEmployee(uint empid, string memory name, string memory designation, string memory department) external{\n      for(uint i = 0; i < getCount(); i++ ){\n         Employee memory emp = emps[i];\n         if(emp.empid == empid) revert('User already exists');\n      }\n      emps.push(Employee(empid, name, designation, department));\n  }\n\n  function getCount() internal view returns(uint){\n      return emps.length;\n  }\n\n  function getEmployee(uint empid) external view returns (Employee memory){\n      for(uint i = 0; i < getCount(); i++ ){\n         Employee memory emp = emps[i];\n          if(emp.empid == empid) return emp;\n      }\n      revert('Employee Not Found');\n  }\n\n}\n",
  "sourcePath": "D:\\EtherAuthority\\EtherAuthorityCodes\\Assignment2\\contracts\\StructDemo.sol",
  "compiler": {
    "name": "solc",
    "version": "0.8.10+commit.fc410830.Emscripten.clang"
  },
  "schemaVersion": "3.4.3",
  "updatedAt": "2021-12-17T07:45:14.527Z",
  "devdoc": {
    "kind": "dev",
    "methods": {},
    "version": 1
  },
  "userdoc": {
    "kind": "user",
    "methods": {},
    "version": 1
  }
}